:030E8400010E005C
:100DF100120E42120E75D2A7D2A5D2A67580FFC2DD
:100E0100A4C2A67FF47E01120E63D2A620A7FDD252
:100E1100A7C2A585800FAF0F7E00120C2DD2A58031
:010E2100E0F0
:03002300020E8842
:010E88003237
:03002B00020E22A0
:100E2200C0E0C0F0C0D0C2CF050EE50E75F00A8456
:100E320085F00EE50E7002D200D0D0D0F0D0E032B4
:100E42007F807E25120DB8C2AFC29FD29EC29DD2B4
:0A0E52009CC299C298D2ACD2AF2224
:100DB800C2AFC299C28EC2AB43878053890F4389A1
:100DC80020E4FCFD7BC0FAF9F8120AADA804A905D5
:100DD800AA06AB077F007EC07DA87C00120D74EFC9
:090DE800F404F58DD28ED2AF2285
:0F0E7500E4F5C8D2ADF5CA75CB4CD2CAD2AF22C4
:070E5C00EF2430F5997F64DB
:100E6300E4FDFCC3ED9FEC9E50070DBD00010C801B
:010E7300F28C
:010E7400225B
:040C2D008E088F0995
:100C3100AB09AA08AC08AD09EC1209ABE4FBFA79DF
:100C4100A07840120800E4FBFA7980784312090980
:100C5100E4FBFA797A78441208001209E4AA06AB97
:100C6100078509907C037DE8AF03AE02120A778EF7
:100C71000C8F0D7C037DE8120A65C3EB9FFBEA9E96
:100C8100FA7C007D64AF03FE120A778E0A8F0B7C1B
:100C9100007D64120A65C3EB9FFBEA9EFA7D0AAFF1
:100CA10003FE120A778F827C007D0A120A65C3EB6C
:100CB1009FFBEA9EFAE50D2430F5997F647E0012D0
:100CC1000E63E50B2430F599120E63AF82120E5CB0
:100CD10075992E120E63AF03120E5C759946120EB2
:070CE1006375990D020E631B
:10080000EC4D6011E8497017ED33EC3304600DE4F2
:10081000FCFFFEFD22E933E8330470F8020A5012AF
:100820000A1B58046009E4CC2481500628500902B0
:100830000A5A284003020A57C0E0EB4A7044B980C4
:1008400006D0E0FB020A46EF4E701CBD8008EBFFAD
:10085000EAFEE9FD80EBE98DF0A4FEE5F00208E98F
:10086000E9CDF9EAFEEBFFEF89F0A4FCE5F0CE89D3
:10087000F0A42EFFE435F0CD89F0A42DFEE435F090
:100880008067EF4E7005BD80D780C3EF8BF0A4ACBE
:10089000F0EE8BF0A42CFCE435F0F8EF8AF0A42CF9
:1008A000E5F038FCE433CB8DF0A42CFCE5F03BF80C
:1008B000EE8AF0A42CFCE5F038F8E433CF89F0A4FC
:1008C0002CFCE5F038CF3400CE89F0A42FFFE5F002
:1008D0003EFEE433C98DF0A42EFEE5F039CD8AF05A
:1008E000A42FFFE5F03EFEE43DFD33D0E0FB5007D2
:1008F0000BBB000F020A5AEC2CFCEF33FFEE33FE69
:06090000ED33FD020A3296
:10090600020A5AEC5D046005E859047003020A50B5
:10091600120A1B580460F6EC4860F2EC7004FDFE07
:10092600FF22C860DB2481C85009C39860025006C4
:10093600020A579850CAF582E9294B4A7005AB82DC
:10094600020A4675F0007C1A7880C3EF9BEE9AED9A
:1009560099400DC3EF9BFFEE9AFEED99FDE842F03C
:10096600DC23ACF0D0E0FFD0E0FED0E0FDAB82208F
:10097600E7101BEB60BAEC2CFCEF33FFEE33FEED19
:1009860033FD020A32E803F830E705C0F075F000DF
:10099600EF2FFFEE33FEED33FD40B830E7C280AAFD
:1009A60075F020800E75F010800575F0087D007ECC
:1009B600007F003392D530D503120AFCEC33401089
:1009C600EF33FFEE33FEED33FDEC33FCD5F0ED22D5
:0E09D600E5F0247EA2D513CC92E7CDCEFF2211
:1009E400EDD2E7CD33EC3392D524814006E4FFFE0B
:1009F400FDFC22FCE4CFCECDCC24E0501174FF806A
:100A0400EDC3CC13CCCD13CDCE13CECF13CF047006
:070A1400F030D5DE020AFC00
:100A1B00E9D2E7C933E833F892D5EDD2E7CD33EC21
:070A2B0033FC5002B2D5229A
:100A3200EC30E7100FBF000C0EBE00080DBD000425
:100A42000BEB6014A2D5EB13FCED92E7FD2274FFD1
:100A5200FCFDFEFF22E480F8A2D574FF13FC7D802A
:030A6200E480EF3E
:03000000020CE807
:0C0CE800787FE4F6D8FD758120020D2F06
:100A6500EF8DF0A4A8F0CF8CF0A428CE8DF0A42EA5
:020A7500FE225F
:100A7700C2D5EC30E709B2D5E4C39DFDE49CFCEE9A
:100A870030E715B2D5E4C39FFFE49EFE120B0AC3FD
:100A9700E49DFDE49CFC8003120B0A30D507C3E4F8
:060AA7009FFFE49EFE2209
:100AAD00E88FF0A4CC8BF0A42CFCE98EF0A42CFCE8
:100ABD008AF0EDA42CFCEA8EF0A4CDA8F08BF0A466
:100ACD002DCC3825F0FDE98FF0A42CCD35F0FCEBC5
:100ADD008EF0A4FEA9F0EB8FF0A4CFC5F02ECD398A
:0F0AED00FEE43CFCEAA42DCE35F0FDE43CFC22F7
:100D7400C2D5E830E70FB2D5E4C39BFBE49AFAE4AA
:100D840099F9E498F8EC30E717B2D5120DAA120BD2
:100D94009BE4C39BFBE49AFAE499F9E498F8800392
:100DA400120B9B30D50DE4C39FFFE49EFEE49DFD32
:040DB400E49CFC229D
:0E0AFC00C3E49FFFE49EFEE49DFDE49CFC220B
:100CF400020DF1E493A3F8E493A34003F68001F218
:100D040008DFF48029E493A3F85407240CC8C33300
:100D1400C4540F4420C8834004F456800146F6DFCF
:100D2400E4800B0102040810204080900E84E47ECD
:100D3400019360BCA3FF543F30E509541FFEE493C4
:100D4400A360010ECF54C025E060A840B8E493A38B
:100D5400FAE493A3F8E493A3C8C582C8CAC583CAB6
:100D6400F0A3C8C582C8CAC583CADFE9DEE780BE6E
:010E8700006A
:100B0A00BC000BBE0029EF8DF084FFADF022E4CCCF
:100B1A00F875F008EF2FFFEE33FEEC33FCEE9DEC98
:100B2A00984005FCEE9DFE0FD5F0E9E4CEFD22EDDE
:100B3A00F8F5F0EE8420D21CFEADF075F008EF2F28
:100B4A00FFED33FD4007985006D5F0F222C398FD19
:050B5A000FD5F0EA22B6
:100B5F0075F008758200EF2FFFEE33FECD33CDCC4D
:100B6F0033CCC58233C5829BED9AEC99E5829840D0
:100B7F000CF582EE9BFEED9AFDEC99FC0FD5F0D6AD
:100B8F00E4CEFBE4CDFAE4CCF9A88222B800C1B9D7
:100B9F000059BA002DEC8BF084CFCECDFCE5F0CB15
:100BAF00F97818EF2FFFEE33FEED33FDEC33FCEB4E
:100BBF0033FB10D703994004EB99FB0FD8E5E4F909
:100BCF00FA227818EF2FFFEE33FEED33FDEC33FCF6
:100BDF00C933C910D7059BE99A4007EC9BFCE99AEA
:100BEF00F90FD8E0E4C9FAE4CCFB2275F010EF2F2F
:100BFF00FFEE33FEED33FDCC33CCC833C810D7072F
:100C0F009BEC9AE899400AED9BFDEC9AFCE899F869
:0E0C1F000FD5F0DAE4CDFBE4CCFAE4C8F922FC
:00000001FF
