:100000000C9437010C9462010C9462010C9462010F
:100010000C9462010C9462010C9462010C946201D4
:100020000C9462010C9462010C9462010C946201C4
:100030000C9462010C9462010C9462010C946201B4
:100040000C9462010C9462010C9462010C946201A4
:100050000C9462010C947E010C9462010C94620178
:100060000C9462010C9468050C941D050C946201BB
:100070000C9462010C9462010C9462010C94620174
:100080000C9462010C9462010C9462010C94620164
:100090000C9462010C9462010C9462010C94620154
:1000A0000C9462010C9462010C9462010C94620144
:1000B0000C9462010C9462010C9462010C94620134
:1000C0000C9462010C9462010C9462010C94620124
:1000D0000C9462010C9462010C9462010C94620114
:1000E0000C9462010A0D0020204572726F72203D4F
:1000F00020000A0D00537461636B204279746520FF
:10010000436F756E74203D20000A0D00202041646D
:100110006472657373206F7574206F662072616EF0
:1001200067650A0D0020204C656E67746820696E53
:100130002068657820286D617820343029203D20A2
:1001400000202056616C75652028696E20686578EE
:1001500029203D200020204D656D6F7279203D00E3
:100160000A0D2020000A0D00496E76616C6964203A
:1001700076616C75650A0D005772697465204D656E
:100180006D0A0D000A0D00636D643E2000202043BF
:100190006F6D6D616E6473206172653A0A0D0020A7
:1001A00020676520202D20446973706C617920657B
:1001B00072726F7220636F64650A0D0020206365A0
:1001C00020202D20436C6561722063757272656E0C
:1001D00074206572726F720A0D002020736B2020EC
:1001E0002D20737461636B20757365640A0D0020A4
:1001F00020726D20202D2052656164206D656D6F29
:1002000072790A0D002020776D20202D2057726909
:100210007465206D656D6F72790A0D0020203F2096
:1002200020202D20446973706C6179207468697393
:100230002068656C70206D656E750A0D0057656CE1
:10024000636F6D6520746F20456D626564646564DD
:100250002053797374656D732050726F6772616D8E
:100260006D696E670A0D00636D643E200000112405
:100270001FBECFEFD1E2DEBFCDBF00E00CBF1AEA58
:10028000CFEFD1E2AA27B2E01D93BD17E9F7AC1773
:10029000D9F712E0A0E0B2E0E0E0FEE000E00BBF42
:1002A00002C007900D92AC34B107D9F713E0ACE46B
:1002B000B2E001C01D92A037B107E1F70E94C2066B
:1002C0000C94FE060C94D60190914C02992319F4DB
:1002D00080934C022998089510924C02299A08950F
:1002E00080914C02089582E084BD95E095BD93EC29
:1002F00097BD18BC80936E0016BC08951F920F9294
:100300000FB60F920BB60F9211242F933F934F937A
:100310005F936F937F938F939F93AF93BF93EF936D
:10032000FF9380914D02813021F482E00E946401AC
:100330002AC081E080934D028091000290910102D9
:10034000883C910518F081E090E001C001969093FF
:10035000010280930002809100029091010264E109
:1003600070E00E94CE06009711F40E94EB0280918B
:1003700000029091010283709070009711F40E9426
:100380000F0310924D02FF91EF91BF91AF919F919A
:100390008F917F916F915F914F913F912F910F902E
:1003A0000BBE0F900FBE0F901F9018951F920F92CB
:1003B0000FB60F920BB60F9211242F933F934F93CA
:1003C0005F936F937F938F939F93AF93BF93EF93BD
:1003D000FF938EE00E946401FF91EF91BF91AF9176
:1003E0009F918F917F916F915F914F913F912F914D
:1003F0000F900BBE0F900FBE0F901F901895EF92AD
:10040000FF920F931F93CF93DF93CDB7DEB765971E
:100410000FB6F894DEBF0FBECDBF8C019B017A01F1
:100420006115710559F4DC01ED91FC91119780E3A0
:100430008083ED91FC911197118246C077FF0FC028
:10044000309521953F4FDC01ED91FC9111978DE2A4
:1004500080838D919C91119701968D939C93FE01C1
:10046000319685E1DF011D928A95E9F7FE017596C7
:10047000C901B7010E94E2068A30910514F4805D3B
:1004800008C0B0E1EB16F10429F488509E4FDC015E
:100490008C918293C901B7010E94E2069B0161150C
:1004A000710531F79F0107C08C93F801808191811C
:1004B000019691838083D9018D919D01F801A081DE
:1004C000B181882389F71C9265960FB6F894DEBF38
:1004D0000FBECDBFDF91CF911F910F91FF90EF9095
:1004E0000895AF92BF92DF92EF92FF920F931F9306
:1004F000CF93DF93FC017B01EC0109900020E9F729
:100500002197C81BD90B80818D3229F43196219710
:10051000DD24D39401C0DD2461E070E040E050E0D0
:100520009E01215030401AC08AE0E816F10459F4C7
:10053000CB01880F991FB3E0660F771FBA95E1F7DB
:10054000680F791F09C0A0E1EA16F10429F484E0DC
:10055000660F771F8A95E1F74F5F5F4F421753078A
:100560001CF35F0100E010E0E0E0F0E021C0D50105
:100570002D915D01322F3156822F90E0363018F4E4
:100580008755904006C02154263010F4C79701C00B
:10059000C097869F9001879F300D969F300D112444
:1005A000E20FF31FCB01B7010E94E2060F5F1F4F5E
:1005B0000C171D07E4F2DD2019F0F095E195FF4FCF
:1005C000CF01DF91CF911F910F91FF90EF90DF90BE
:1005D000BF90AF900895489A089540E0EFEFF1E2A0
:1005E00020E030E080E090E04A3A21F440814A3A4D
:1005F00039F403C040814A3A29F42F5F3F4F02C0CB
:1006000020E030E040812330310511F40297089555
:100610000196319751E0EF3FF50731F70895CF92FA
:10062000DF92EF92FF920F931F93CF93DF93CDB79B
:10063000DEB7C654D0400FB6F894DEBF0FBECDBFB4
:1006400080E5C82E82E0D82E93E0E92EF12CEC0E46
:10065000FD1EA6C1E0914902F0914A028D3009F0D9
:100660008DC11082D0924A02C092490284EE90E07D
:100670000E94210610924F0210924E0280915A025F
:10068000873009F47BC0883009F4A2C0882309F0C0
:1006900066C180E592E069E072E00E94F50600978D
:1006A00011F481E092C080E592E06BE072E00E947C
:1006B000F5060097E1F40E947001682F87EE90E044
:1006C00027966FAF27970E942106FA82E982CE0112
:1006D000019627966FAD279770E04AE050E00E94A0
:1006E000FF01C7010E94D30582EF90E05FC080E563
:1006F00092E06EE072E00E94F506009719F40E9405
:100700006C012FC180E592E061E172E00E94F50684
:10071000009749F080E592E064E172E00E94F506FE
:10072000009721F00CC010925B0203C081E080931F
:100730005B0287E192E00E94D30587E046C080E536
:1007400092E062E472E00E94F506009709F007C1AA
:100750000E94ED028C0185EF90E00E942106FA8252
:10076000E982CE010196B8014AE050E00E94FF0103
:10077000C7010E94D30589E091E018C08091500222
:10078000882309F4ECC080E592E060E170E00E940B
:1007900071029C0190935D0280935C022050324074
:1007A00080E22030380728F08CE091E00E9421069A
:1007B000D8C080915B02882319F485E291E002C0E1
:1007C00081E491E00E94210688E080935A02C9C02A
:1007D00080915002882309F4C4C080915B02882371
:1007E00009F09BC080E592E060E170E00E94710238
:1007F0009C0190935F0280935E0240915C02509155
:100800005D02CA010197820F931F22E28030920796
:1008100040F080E092E2841B950B90935F028093FE
:100820005E0280915E0290915F02009731F481E058
:1008300090E090935F0280935E0280915E029091BF
:100840005F028134910530F080E490E090935F0284
:1008500080935E0285E591E00E942106109261027C
:100860001092600200E310E249C08F709070009710
:10087000B9F480E691E00E942106FA82E982609153
:100880005C0270915D02CE01019640E150E00E9451
:10089000FF01C7010E94D30585E492E00E94D305C1
:1008A000FA82E982E0915C02F0915D0261916B83D2
:1008B000F0935D02E0935C02CE01019670E040E1AE
:1008C00050E00E94FF01F70101900020E9F7319705
:1008D000EE19FF09E230F10518F48B818C830B834C
:1008E0001D831E82C7010E94D305809160029091F2
:1008F0006102019690936102809360028091600290
:100900009091610220915E0230915F0282179307FD
:1009100008F4ABCF85E691E020C080E592E060E18D
:1009200070E00E94710290936302809362028F3F95
:10093000910521F018F088E691E00FC088E791E07A
:100940000E942106E0915C02F0915D02FA83E98346
:1009500080916202808384E891E00E9421061092D7
:100960005A02D0924A02C092490280915A028823C8
:10097000B9F487E891E00E94210612C092E0E835C0
:10098000F90770F480831182CF010E94D305809112
:10099000490290914A02019690934A02809349023B
:1009A0000E949A06882309F055CE80915A02813020
:1009B00051F48DE891E00E9421068FE991E00E94B8
:1009C000210682E007C0823041F48CEB91E00E9466
:1009D000210683E080935A0220C0833031F48AEDEF
:1009E00091E00E94210684E0F5CF843011F485E087
:1009F000F1CF853031F48FEE91E00E94210686E040
:100A0000E9CF863051F485E092E00E9421068CE126
:100A100092E00E94210610925A02CA5BDF4F0FB685
:100A2000F894DEBF0FBECDBFDF91CF911F910F9124
:100A3000FF90EF90DF90CF9008951F920F920FB626
:100A40000F920BB60F9211242F933F938F939F9386
:100A5000EF93FF938091C1008F7D8093C1007894C4
:100A6000E0916802F0916902208180916802909182
:100A7000690233E08F36930730F4809168029091D9
:100A80006902019602C086E792E090936902809322
:100A900068022093C600209168023091690280911B
:100AA0006A0290916B022817390729F08091C100E2
:100AB00080628093C100FF91EF919F918F913F9150
:100AC0002F910F900BBE0F900FBE0F901F90189597
:100AD0001F920F920FB60F920BB60F9211242F9305
:100AE0003F934F935F936F937F938F939F93AF93B6
:100AF000BF93CF93EF93FF93C091C000E091660244
:100B0000F09167028091C600808380916602909187
:100B10006702209166023091670242E02537340770
:100B200038F420916602309167022F5F3F4F02C078
:100B30002CE632E030936702209366024091660211
:100B40005091670220916402309165024217530769
:100B500039F4909367028093660284E00E946401F6
:100B6000C4FF03C086E00E946401C3FF03C087E0A6
:100B70000E946401C2FF03C088E00E946401FF91EB
:100B8000EF91CF91BF91AF919F918F917F916F9195
:100B90005F914F913F912F910F900BBE0F900FBE21
:100BA0000F901F9018951FC0FC0120812223E9F0AF
:100BB000E0916A02F0916B02208320916A023091E9
:100BC0006B02F3E02F363F0738F420916A02309130
:100BD0006B022F5F3F4F02C026E732E030936B027B
:100BE00020936A02019660E001C061E020916A02F0
:100BF00030916B0243E02F36340738F420916A02BB
:100C000030916B022F5F3F4F02C026E732E04091E8
:100C10006802509169022417350719F0662321F202
:100C200061E08091C10080628093C100662331F44D
:100C300085E00E9464018FEF9FEF089580E090E0CF
:100C400008951DC07723F9F0E0916A02F0916B02DC
:100C5000708320916A0230916B0243E02F36340793
:100C600038F420916A0230916B022F5F3F4F02C02F
:100C700026E732E030936B0220936A02019660E02F
:100C8000FC01749101C061E020916A0230916B0215
:100C9000F3E02F363F0738F420916A0230916B025F
:100CA0002F5F3F4F02C026E732E04091680250912B
:100CB00069022417350719F0662321F261E080915B
:100CC000C10080628093C100662331F485E00E94F8
:100CD00064018FEF9FEF089580E090E008958FEC1E
:100CE00090E09093C5008093C40086E08093C2009A
:100CF00088E98093C1001092C0008CE692E0909346
:100D0000670280936602909365028093640286E78F
:100D100092E090936B0280936A02909369028093B1
:100D200068028DE392E00E94210687E692E00E942D
:100D30002106089520916602309167028091640235
:100D40009091650228173907D9F0E0916402F0917B
:100D500065028081209164023091650292E025371E
:100D6000390738F420916402309165022F5F3F4FBC
:100D700002C02CE632E030936502209364020895AD
:100D800080E00895F8948FEF8AB98BB90E947301BF
:100D90000E946F060E94ED027894FFCFAA1BBB1B36
:100DA00051E107C0AA1FBB1FA617B70710F0A61B6B
:100DB000B70B881F991F5A95A9F780959095BC018C
:100DC000CD01089597FB092E07260AD077FD04D0A0
:100DD000E5DF06D000201AF4709561957F4F0895E5
:100DE000F6F7909581959F4F0895FB01DC018D9159
:100DF000019080190110D9F3990B0895F894FFCF51
:100E00000100616263646566003F006765006365B9
:100E100000726D00776D0020205374617274696EEA
:100E200067206164647265737320696E20686578F9
:100E3000202832303020746F203231464629203D40
:0C0E40002000736B003E202000500200D8
:00000001FF
