:0608CB0001080001090014
:03002B0002088C3C
:10088C00C0E0C0D0C2CAC2CF850890E508B4FF0F43
:10089C000509E509D3940940037509008509A005EC
:0808AC0008D2CAD0D0D0E0321E
:1008B400E4F5C8D2ADF5CA75CBB8F508F5098509D4
:0708C400A0D2CAD2AF80FEF2
:03000000020800F3
:0C080000787FE4F6D8FD758109020847F6
:10080C000208B4E493A3F8E493A34003F68001F246
:10081C0008DFF48029E493A3F85407240CC8C333ED
:10082C00C4540F4420C8834004F456800146F6DFBC
:10083C00E4800B01020408102040809008CBE47E79
:10084C00019360BCA3FF543F30E509541FFEE493B1
:10085C00A360010ECF54C025E060A840B8E493A378
:10086C00FAE493A3F8E493A3C8C582C8CAC583CAA3
:10087C00F0A3C8C582C8CAC583CADFE9DEE780BE5B
:0108D1000026
:00000001FF
