:0D0AFA00010900010800010A41020B000083
:1009A900438E02120AD1120AEBE50C2403F582E503
:1009B9000B3490F5837483F03000FDE4250CF58247
:1009C900E50B3490F583E50AF0050AE50AD3945A54
:1009D900400BE50A94615005750A61800AE50AD35E
:1009E900947A4003750A41E50C2401F582E50B343C
:1009F90090F583E0F50DF599E508C454F0FFE50C91
:100A09002402F582E50B3490F583EFF005085308CD
:100A19000FE50C2402F582E50B3490F583E0540FC1
:0B0A2900F5903099FDC299C200808D4D
:03002B00020AB115
:100AB100C0E0C0F0C0D0C2CF0509E50975F00A84D5
:100AC10085F009E5097002D200D0D0D0F0D0E03233
:100AD1007F807E25120A78C2AFC29FD29EC29DD26C
:0A0AE1009CC299C298D2ACD2AF2299
:100A7800C2AFC299C28EC2AB43878053890F4389E4
:100A880020E4FCFD7BC0FAF9F8120800A804A905C7
:100A9800AA06AB077F007EC07DA87C00120A34EF4F
:090AA800F404F58DD28ED2AF22C8
:0F0AEB00E4F5C8D2ADF5CA75CB4CD2CAD2AF2252
:0300000002091DD5
:0C091D00787FE4F6D8FD758120020964A3
:10080000E88FF0A4CC8BF0A42CFCE98EF0A42CFC97
:100810008AF0EDA42CFCEA8EF0A4CDA8F08BF0A415
:100820002DCC3825F0FDE98FF0A42CCD35F0FCEB74
:100830008EF0A4FEA9F0EB8FF0A4CFC5F02ECD3939
:0F084000FEE43CFCEAA42DCE35F0FDE43CFC22A6
:100A3400C2D5E830E70FB2D5E4C39BFBE49AFAE4ED
:100A440099F9E498F8EC30E717B2D5120A6A12085B
:100A54008BE4C39BFBE49AFAE499F9E498F88003E5
:100A640012088B30D50DE4C39FFFE49EFEE49DFD88
:040A7400E49CFC22E0
:100929000209A9E493A3F8E493A34003F68001F232
:1009390008DFF48029E493A3F85407240CC8C333CF
:10094900C4540F4420C8834004F456800146F6DF9E
:10095900E4800B0102040810204080900AFAE47E2A
:10096900019360BCA3FF543F30E509541FFEE49393
:10097900A360010ECF54C025E060A840B8E493A35A
:10098900FAE493A3F8E493A3C8C582C8CAC583CA85
:10099900F0A3C8C582C8CAC583CADFE9DEE780BE3D
:010B070000ED
:10084F0075F008758200EF2FFFEE33FECD33CDCC60
:10085F0033CCC58233C5829BED9AEC99E5829840E3
:10086F000CF582EE9BFEED9AFDEC99FC0FD5F0D6C0
:10087F00E4CEFBE4CDFAE4CCF9A88222B800C1B9EA
:10088F000059BA002DEC8BF084CFCECDFCE5F0CB28
:10089F00F97818EF2FFFEE33FEED33FDEC33FCEB61
:1008AF0033FB10D703994004EB99FB0FD8E5E4F91C
:1008BF00FA227818EF2FFFEE33FEED33FDEC33FC09
:1008CF00C933C910D7059BE99A4007EC9BFCE99AFD
:1008DF00F90FD8E0E4C9FAE4CCFB2275F010EF2F42
:1008EF00FFEE33FEED33FDCC33CCC833C810D70742
:1008FF009BEC9AE899400AED9BFDEC9AFCE899F87D
:0E090F000FD5F0DAE4CDFBE4CCFAE4C8F9220F
:00000001FF
